{
  "contractName": "Color",
  "abi": [
    {
      "inputs": [],
      "stateMutability": "nonpayable",
      "type": "constructor"
    },
    {
      "anonymous": false,
      "inputs": [
        {
          "indexed": true,
          "internalType": "address",
          "name": "owner",
          "type": "address"
        },
        {
          "indexed": true,
          "internalType": "address",
          "name": "approved",
          "type": "address"
        },
        {
          "indexed": true,
          "internalType": "uint256",
          "name": "tokenId",
          "type": "uint256"
        }
      ],
      "name": "Approval",
      "type": "event"
    },
    {
      "anonymous": false,
      "inputs": [
        {
          "indexed": true,
          "internalType": "address",
          "name": "owner",
          "type": "address"
        },
        {
          "indexed": true,
          "internalType": "address",
          "name": "operator",
          "type": "address"
        },
        {
          "indexed": false,
          "internalType": "bool",
          "name": "approved",
          "type": "bool"
        }
      ],
      "name": "ApprovalForAll",
      "type": "event"
    },
    {
      "anonymous": false,
      "inputs": [
        {
          "indexed": true,
          "internalType": "uint256",
          "name": "tokenId",
          "type": "uint256"
        },
        {
          "indexed": false,
          "internalType": "string",
          "name": "tokenURI",
          "type": "string"
        }
      ],
      "name": "CreatedSVGNFT",
      "type": "event"
    },
    {
      "anonymous": false,
      "inputs": [
        {
          "indexed": true,
          "internalType": "address",
          "name": "previousOwner",
          "type": "address"
        },
        {
          "indexed": true,
          "internalType": "address",
          "name": "newOwner",
          "type": "address"
        }
      ],
      "name": "OwnershipTransferred",
      "type": "event"
    },
    {
      "anonymous": false,
      "inputs": [
        {
          "indexed": true,
          "internalType": "address",
          "name": "from",
          "type": "address"
        },
        {
          "indexed": true,
          "internalType": "address",
          "name": "to",
          "type": "address"
        },
        {
          "indexed": true,
          "internalType": "uint256",
          "name": "tokenId",
          "type": "uint256"
        }
      ],
      "name": "Transfer",
      "type": "event"
    },
    {
      "inputs": [
        {
          "internalType": "address",
          "name": "to",
          "type": "address"
        },
        {
          "internalType": "uint256",
          "name": "tokenId",
          "type": "uint256"
        }
      ],
      "name": "approve",
      "outputs": [],
      "stateMutability": "nonpayable",
      "type": "function"
    },
    {
      "inputs": [
        {
          "internalType": "address",
          "name": "owner",
          "type": "address"
        }
      ],
      "name": "balanceOf",
      "outputs": [
        {
          "internalType": "uint256",
          "name": "",
          "type": "uint256"
        }
      ],
      "stateMutability": "view",
      "type": "function",
      "constant": true
    },
    {
      "inputs": [
        {
          "internalType": "uint256",
          "name": "",
          "type": "uint256"
        }
      ],
      "name": "colors",
      "outputs": [
        {
          "internalType": "string",
          "name": "color",
          "type": "string"
        },
        {
          "internalType": "address",
          "name": "owner",
          "type": "address"
        },
        {
          "internalType": "string",
          "name": "dateCreated",
          "type": "string"
        }
      ],
      "stateMutability": "view",
      "type": "function",
      "constant": true
    },
    {
      "inputs": [
        {
          "internalType": "uint256",
          "name": "tokenId",
          "type": "uint256"
        }
      ],
      "name": "getApproved",
      "outputs": [
        {
          "internalType": "address",
          "name": "",
          "type": "address"
        }
      ],
      "stateMutability": "view",
      "type": "function",
      "constant": true
    },
    {
      "inputs": [
        {
          "internalType": "address",
          "name": "owner",
          "type": "address"
        },
        {
          "internalType": "address",
          "name": "operator",
          "type": "address"
        }
      ],
      "name": "isApprovedForAll",
      "outputs": [
        {
          "internalType": "bool",
          "name": "",
          "type": "bool"
        }
      ],
      "stateMutability": "view",
      "type": "function",
      "constant": true
    },
    {
      "inputs": [],
      "name": "name",
      "outputs": [
        {
          "internalType": "string",
          "name": "",
          "type": "string"
        }
      ],
      "stateMutability": "view",
      "type": "function",
      "constant": true
    },
    {
      "inputs": [],
      "name": "owner",
      "outputs": [
        {
          "internalType": "address",
          "name": "",
          "type": "address"
        }
      ],
      "stateMutability": "view",
      "type": "function",
      "constant": true
    },
    {
      "inputs": [
        {
          "internalType": "uint256",
          "name": "tokenId",
          "type": "uint256"
        }
      ],
      "name": "ownerOf",
      "outputs": [
        {
          "internalType": "address",
          "name": "",
          "type": "address"
        }
      ],
      "stateMutability": "view",
      "type": "function",
      "constant": true
    },
    {
      "inputs": [],
      "name": "renounceOwnership",
      "outputs": [],
      "stateMutability": "nonpayable",
      "type": "function"
    },
    {
      "inputs": [
        {
          "internalType": "address",
          "name": "from",
          "type": "address"
        },
        {
          "internalType": "address",
          "name": "to",
          "type": "address"
        },
        {
          "internalType": "uint256",
          "name": "tokenId",
          "type": "uint256"
        }
      ],
      "name": "safeTransferFrom",
      "outputs": [],
      "stateMutability": "nonpayable",
      "type": "function"
    },
    {
      "inputs": [
        {
          "internalType": "address",
          "name": "from",
          "type": "address"
        },
        {
          "internalType": "address",
          "name": "to",
          "type": "address"
        },
        {
          "internalType": "uint256",
          "name": "tokenId",
          "type": "uint256"
        },
        {
          "internalType": "bytes",
          "name": "_data",
          "type": "bytes"
        }
      ],
      "name": "safeTransferFrom",
      "outputs": [],
      "stateMutability": "nonpayable",
      "type": "function"
    },
    {
      "inputs": [
        {
          "internalType": "address",
          "name": "operator",
          "type": "address"
        },
        {
          "internalType": "bool",
          "name": "approved",
          "type": "bool"
        }
      ],
      "name": "setApprovalForAll",
      "outputs": [],
      "stateMutability": "nonpayable",
      "type": "function"
    },
    {
      "inputs": [
        {
          "internalType": "bytes4",
          "name": "interfaceId",
          "type": "bytes4"
        }
      ],
      "name": "supportsInterface",
      "outputs": [
        {
          "internalType": "bool",
          "name": "",
          "type": "bool"
        }
      ],
      "stateMutability": "view",
      "type": "function",
      "constant": true
    },
    {
      "inputs": [],
      "name": "symbol",
      "outputs": [
        {
          "internalType": "string",
          "name": "",
          "type": "string"
        }
      ],
      "stateMutability": "view",
      "type": "function",
      "constant": true
    },
    {
      "inputs": [],
      "name": "tokenCounter",
      "outputs": [
        {
          "internalType": "uint256",
          "name": "",
          "type": "uint256"
        }
      ],
      "stateMutability": "view",
      "type": "function",
      "constant": true
    },
    {
      "inputs": [
        {
          "internalType": "uint256",
          "name": "tokenId",
          "type": "uint256"
        }
      ],
      "name": "tokenURI",
      "outputs": [
        {
          "internalType": "string",
          "name": "",
          "type": "string"
        }
      ],
      "stateMutability": "view",
      "type": "function",
      "constant": true
    },
    {
      "inputs": [
        {
          "internalType": "address",
          "name": "from",
          "type": "address"
        },
        {
          "internalType": "address",
          "name": "to",
          "type": "address"
        },
        {
          "internalType": "uint256",
          "name": "tokenId",
          "type": "uint256"
        }
      ],
      "name": "transferFrom",
      "outputs": [],
      "stateMutability": "nonpayable",
      "type": "function"
    },
    {
      "inputs": [
        {
          "internalType": "address",
          "name": "newOwner",
          "type": "address"
        }
      ],
      "name": "transferOwnership",
      "outputs": [],
      "stateMutability": "nonpayable",
      "type": "function"
    },
    {
      "inputs": [
        {
          "internalType": "string",
          "name": "svg",
          "type": "string"
        },
        {
          "internalType": "string",
          "name": "_color",
          "type": "string"
        },
        {
          "internalType": "string",
          "name": "_date",
          "type": "string"
        }
      ],
      "name": "create",
      "outputs": [],
      "stateMutability": "nonpayable",
      "type": "function"
    },
    {
      "inputs": [
        {
          "internalType": "string",
          "name": "svg",
          "type": "string"
        }
      ],
      "name": "svgToImageURI",
      "outputs": [
        {
          "internalType": "string",
          "name": "",
          "type": "string"
        }
      ],
      "stateMutability": "pure",
      "type": "function",
      "constant": true
    },
    {
      "inputs": [
        {
          "internalType": "string",
          "name": "imageURI",
          "type": "string"
        },
        {
          "internalType": "string",
          "name": "_color",
          "type": "string"
        }
      ],
      "name": "formatTokenURI",
      "outputs": [
        {
          "internalType": "string",
          "name": "",
          "type": "string"
        }
      ],
      "stateMutability": "pure",
      "type": "function",
      "constant": true
    }
  ],
  "bytecode": "0x60806040523480156200001157600080fd5b506040518060400160405280600a81526020017f436f6c6f7220436f6465000000000000000000000000000000000000000000008152506040518060400160405280600381526020017f434c520000000000000000000000000000000000000000000000000000000000815250816000908051906020019062000096929190620001ae565b508060019080519060200190620000af929190620001ae565b505050620000d2620000c6620000e060201b60201c565b620000e860201b60201c565b6000600881905550620002c3565b600033905090565b6000600760009054906101000a900473ffffffffffffffffffffffffffffffffffffffff16905081600760006101000a81548173ffffffffffffffffffffffffffffffffffffffff021916908373ffffffffffffffffffffffffffffffffffffffff1602179055508173ffffffffffffffffffffffffffffffffffffffff168173ffffffffffffffffffffffffffffffffffffffff167f8be0079c531659141344cd1fd0a4f28419497f9722a3daafe3b4186f6b6457e060405160405180910390a35050565b828054620001bc906200025e565b90600052602060002090601f016020900481019282620001e057600085556200022c565b82601f10620001fb57805160ff19168380011785556200022c565b828001600101855582156200022c579182015b828111156200022b5782518255916020019190600101906200020e565b5b5090506200023b91906200023f565b5090565b5b808211156200025a57600081600090555060010162000240565b5090565b600060028204905060018216806200027757607f821691505b602082108114156200028e576200028d62000294565b5b50919050565b7f4e487b7100000000000000000000000000000000000000000000000000000000600052602260045260246000fd5b613b2580620002d36000396000f3fe608060405234801561001057600080fd5b50600436106101375760003560e01c806370a08231116100b8578063b88d4fde1161007c578063b88d4fde1461034c578063bd11f69d14610368578063c87b56dd1461039a578063d082e381146103ca578063e985e9c5146103e8578063f2fde38b1461041857610137565b806370a08231146102ba578063715018a6146102ea5780638da5cb5b146102f457806395d89b4114610312578063a22cb4651461033057610137565b806330d871c6116100ff57806330d871c6146101f257806342842e0e14610222578063560292721461023e5780635d28560a1461026e5780636352211e1461028a57610137565b806301ffc9a71461013c57806306fdde031461016c578063081812fc1461018a578063095ea7b3146101ba57806323b872dd146101d6575b600080fd5b6101566004803603810190610151919061250f565b610434565b6040516101639190612bdb565b60405180910390f35b610174610516565b6040516101819190612bf6565b60405180910390f35b6101a4600480360381019061019f91906126d1565b6105a8565b6040516101b19190612b74565b60405180910390f35b6101d460048036038101906101cf91906124cf565b61062d565b005b6101f060048036038101906101eb91906123b9565b610745565b005b61020c60048036038101906102079190612569565b6107a5565b6040516102199190612bf6565b60405180910390f35b61023c600480360381019061023791906123b9565b610838565b005b610258600480360381019061025391906125b2565b610858565b6040516102659190612bf6565b60405180910390f35b6102886004803603810190610283919061262a565b6108ab565b005b6102a4600480360381019061029f91906126d1565b610a80565b6040516102b19190612b74565b60405180910390f35b6102d460048036038101906102cf919061234c565b610b32565b6040516102e19190612e9d565b60405180910390f35b6102f2610bea565b005b6102fc610c72565b6040516103099190612b74565b60405180910390f35b61031a610c9c565b6040516103279190612bf6565b60405180910390f35b61034a6004803603810190610345919061248f565b610d2e565b005b6103666004803603810190610361919061240c565b610eaf565b005b610382600480360381019061037d91906126d1565b610f11565b60405161039193929190612c18565b60405180910390f35b6103b460048036038101906103af91906126d1565b61107b565b6040516103c19190612bf6565b60405180910390f35b6103d26111cd565b6040516103df9190612e9d565b60405180910390f35b61040260048036038101906103fd9190612379565b6111d3565b60405161040f9190612bdb565b60405180910390f35b610432600480360381019061042d919061234c565b611267565b005b60007f80ac58cd000000000000000000000000000000000000000000000000000000007bffffffffffffffffffffffffffffffffffffffffffffffffffffffff1916827bffffffffffffffffffffffffffffffffffffffffffffffffffffffff191614806104ff57507f5b5e139f000000000000000000000000000000000000000000000000000000007bffffffffffffffffffffffffffffffffffffffffffffffffffffffff1916827bffffffffffffffffffffffffffffffffffffffffffffffffffffffff1916145b8061050f575061050e8261135f565b5b9050919050565b6060600080546105259061314d565b80601f01602080910402602001604051908101604052809291908181526020018280546105519061314d565b801561059e5780601f106105735761010080835404028352916020019161059e565b820191906000526020600020905b81548152906001019060200180831161058157829003601f168201915b5050505050905090565b60006105b3826113c9565b6105f2576040517f08c379a00000000000000000000000000000000000000000000000000000000081526004016105e990612ddd565b60405180910390fd5b6004600083815260200190815260200160002060009054906101000a900473ffffffffffffffffffffffffffffffffffffffff169050919050565b600061063882610a80565b90508073ffffffffffffffffffffffffffffffffffffffff168373ffffffffffffffffffffffffffffffffffffffff1614156106a9576040517f08c379a00000000000000000000000000000000000000000000000000000000081526004016106a090612e5d565b60405180910390fd5b8073ffffffffffffffffffffffffffffffffffffffff166106c8611435565b73ffffffffffffffffffffffffffffffffffffffff1614806106f757506106f6816106f1611435565b6111d3565b5b610736576040517f08c379a000000000000000000000000000000000000000000000000000000000815260040161072d90612d1d565b60405180910390fd5b610740838361143d565b505050565b610756610750611435565b826114f6565b610795576040517f08c379a000000000000000000000000000000000000000000000000000000000815260040161078c90612e7d565b60405180910390fd5b6107a08383836115d4565b505050565b606060006040518060400160405280601a81526020017f646174613a696d6167652f7376672b786d6c3b6261736536342c0000000000008152509050600061080b846040516020016107f79190612ad2565b604051602081830303815290604052611830565b90508181604051602001610820929190612ae9565b60405160208183030381529060405292505050919050565b61085383838360405180602001604052806000815250610eaf565b505050565b60606108848284604051602001610870929190612b0d565b604051602081830303815290604052611830565b6040516020016108949190612b52565b604051602081830303815290604052905092915050565b600a826040516108bb9190612ad2565b908152602001604051809103902060009054906101000a900460ff16156108e157600080fd5b600060405180606001604052808481526020013373ffffffffffffffffffffffffffffffffffffffff1681526020018381525090506009819080600181540180825580915050600190039060005260206000209060030201600090919091909150600082015181600001908051906020019061095e929190612160565b5060208201518160010160006101000a81548173ffffffffffffffffffffffffffffffffffffffff021916908373ffffffffffffffffffffffffffffffffffffffff16021790555060408201518160020190805190602001906109c2929190612160565b5050506109d1336008546119b5565b6001600a846040516109e39190612ad2565b908152602001604051809103902060006101000a81548160ff0219169083151502179055506000610a13856107a5565b9050610a2a600854610a258387610858565b6119d3565b6001600854610a399190612f82565b6008819055506008547ff5acc616aa8ecd00e5d76674d7812f9c3c3571d662c9fba4499deefa6d0be12d86604051610a719190612bf6565b60405180910390a25050505050565b6000806002600084815260200190815260200160002060009054906101000a900473ffffffffffffffffffffffffffffffffffffffff169050600073ffffffffffffffffffffffffffffffffffffffff168173ffffffffffffffffffffffffffffffffffffffff161415610b29576040517f08c379a0000000000000000000000000000000000000000000000000000000008152600401610b2090612d5d565b60405180910390fd5b80915050919050565b60008073ffffffffffffffffffffffffffffffffffffffff168273ffffffffffffffffffffffffffffffffffffffff161415610ba3576040517f08c379a0000000000000000000000000000000000000000000000000000000008152600401610b9a90612d3d565b60405180910390fd5b600360008373ffffffffffffffffffffffffffffffffffffffff1673ffffffffffffffffffffffffffffffffffffffff168152602001908152602001600020549050919050565b610bf2611435565b73ffffffffffffffffffffffffffffffffffffffff16610c10610c72565b73ffffffffffffffffffffffffffffffffffffffff1614610c66576040517f08c379a0000000000000000000000000000000000000000000000000000000008152600401610c5d90612dfd565b60405180910390fd5b610c706000611a47565b565b6000600760009054906101000a900473ffffffffffffffffffffffffffffffffffffffff16905090565b606060018054610cab9061314d565b80601f0160208091040260200160405190810160405280929190818152602001828054610cd79061314d565b8015610d245780601f10610cf957610100808354040283529160200191610d24565b820191906000526020600020905b815481529060010190602001808311610d0757829003601f168201915b5050505050905090565b610d36611435565b73ffffffffffffffffffffffffffffffffffffffff168273ffffffffffffffffffffffffffffffffffffffff161415610da4576040517f08c379a0000000000000000000000000000000000000000000000000000000008152600401610d9b90612cdd565b60405180910390fd5b8060056000610db1611435565b73ffffffffffffffffffffffffffffffffffffffff1673ffffffffffffffffffffffffffffffffffffffff16815260200190815260200160002060008473ffffffffffffffffffffffffffffffffffffffff1673ffffffffffffffffffffffffffffffffffffffff16815260200190815260200160002060006101000a81548160ff0219169083151502179055508173ffffffffffffffffffffffffffffffffffffffff16610e5e611435565b73ffffffffffffffffffffffffffffffffffffffff167f17307eab39ab6107e8899845ad3d59bd9653f200f220920489ca2b5937696c3183604051610ea39190612bdb565b60405180910390a35050565b610ec0610eba611435565b836114f6565b610eff576040517f08c379a0000000000000000000000000000000000000000000000000000000008152600401610ef690612e7d565b60405180910390fd5b610f0b84848484611b0d565b50505050565b60098181548110610f2157600080fd5b9060005260206000209060030201600091509050806000018054610f449061314d565b80601f0160208091040260200160405190810160405280929190818152602001828054610f709061314d565b8015610fbd5780601f10610f9257610100808354040283529160200191610fbd565b820191906000526020600020905b815481529060010190602001808311610fa057829003601f168201915b5050505050908060010160009054906101000a900473ffffffffffffffffffffffffffffffffffffffff1690806002018054610ff89061314d565b80601f01602080910402602001604051908101604052809291908181526020018280546110249061314d565b80156110715780601f1061104657610100808354040283529160200191611071565b820191906000526020600020905b81548152906001019060200180831161105457829003601f168201915b5050505050905083565b6060611086826113c9565b6110c5576040517f08c379a00000000000000000000000000000000000000000000000000000000081526004016110bc90612dbd565b60405180910390fd5b60006006600084815260200190815260200160002080546110e59061314d565b80601f01602080910402602001604051908101604052809291908181526020018280546111119061314d565b801561115e5780601f106111335761010080835404028352916020019161115e565b820191906000526020600020905b81548152906001019060200180831161114157829003601f168201915b50505050509050600061116f611b69565b90506000815114156111855781925050506111c8565b6000825111156111ba5780826040516020016111a2929190612ae9565b604051602081830303815290604052925050506111c8565b6111c384611b80565b925050505b919050565b60085481565b6000600560008473ffffffffffffffffffffffffffffffffffffffff1673ffffffffffffffffffffffffffffffffffffffff16815260200190815260200160002060008373ffffffffffffffffffffffffffffffffffffffff1673ffffffffffffffffffffffffffffffffffffffff16815260200190815260200160002060009054906101000a900460ff16905092915050565b61126f611435565b73ffffffffffffffffffffffffffffffffffffffff1661128d610c72565b73ffffffffffffffffffffffffffffffffffffffff16146112e3576040517f08c379a00000000000000000000000000000000000000000000000000000000081526004016112da90612dfd565b60405180910390fd5b600073ffffffffffffffffffffffffffffffffffffffff168173ffffffffffffffffffffffffffffffffffffffff161415611353576040517f08c379a000000000000000000000000000000000000000000000000000000000815260040161134a90612c7d565b60405180910390fd5b61135c81611a47565b50565b60007f01ffc9a7000000000000000000000000000000000000000000000000000000007bffffffffffffffffffffffffffffffffffffffffffffffffffffffff1916827bffffffffffffffffffffffffffffffffffffffffffffffffffffffff1916149050919050565b60008073ffffffffffffffffffffffffffffffffffffffff166002600084815260200190815260200160002060009054906101000a900473ffffffffffffffffffffffffffffffffffffffff1673ffffffffffffffffffffffffffffffffffffffff1614159050919050565b600033905090565b816004600083815260200190815260200160002060006101000a81548173ffffffffffffffffffffffffffffffffffffffff021916908373ffffffffffffffffffffffffffffffffffffffff160217905550808273ffffffffffffffffffffffffffffffffffffffff166114b083610a80565b73ffffffffffffffffffffffffffffffffffffffff167f8c5be1e5ebec7d5bd14f71427d1e84f3dd0314c0f7b2291e5b200ac8c7c3b92560405160405180910390a45050565b6000611501826113c9565b611540576040517f08c379a000000000000000000000000000000000000000000000000000000000815260040161153790612cfd565b60405180910390fd5b600061154b83610a80565b90508073ffffffffffffffffffffffffffffffffffffffff168473ffffffffffffffffffffffffffffffffffffffff1614806115ba57508373ffffffffffffffffffffffffffffffffffffffff166115a2846105a8565b73ffffffffffffffffffffffffffffffffffffffff16145b806115cb57506115ca81856111d3565b5b91505092915050565b8273ffffffffffffffffffffffffffffffffffffffff166115f482610a80565b73ffffffffffffffffffffffffffffffffffffffff161461164a576040517f08c379a000000000000000000000000000000000000000000000000000000000815260040161164190612e1d565b60405180910390fd5b600073ffffffffffffffffffffffffffffffffffffffff168273ffffffffffffffffffffffffffffffffffffffff1614156116ba576040517f08c379a00000000000000000000000000000000000000000000000000000000081526004016116b190612cbd565b60405180910390fd5b6116c5838383611c27565b6116d060008261143d565b6001600360008573ffffffffffffffffffffffffffffffffffffffff1673ffffffffffffffffffffffffffffffffffffffff16815260200190815260200160002060008282546117209190613063565b925050819055506001600360008473ffffffffffffffffffffffffffffffffffffffff1673ffffffffffffffffffffffffffffffffffffffff16815260200190815260200160002060008282546117779190612f82565b92505081905550816002600083815260200190815260200160002060006101000a81548173ffffffffffffffffffffffffffffffffffffffff021916908373ffffffffffffffffffffffffffffffffffffffff160217905550808273ffffffffffffffffffffffffffffffffffffffff168473ffffffffffffffffffffffffffffffffffffffff167fddf252ad1be2c89b69c2b068fc378daa952ba7f163c4a11628f55a4df523b3ef60405160405180910390a4505050565b6060600082511415611853576040518060200160405280600081525090506119b0565b6000604051806060016040528060408152602001613ab060409139905060006003600285516118829190612f82565b61188c9190612fd8565b60046118989190613009565b905060006020826118a99190612f82565b67ffffffffffffffff8111156118c2576118c16132e6565b5b6040519080825280601f01601f1916602001820160405280156118f45781602001600182028036833780820191505090505b509050818152600183018586518101602084015b8183101561196f576003830192508251603f8160121c1685015160f81b8252600182019150603f81600c1c1685015160f81b8252600182019150603f8160061c1685015160f81b8252600182019150603f811685015160f81b825260018201915050611908565b6003895106600181146119895760028114611999576119a4565b613d3d60f01b60028303526119a4565b603d60f81b60018303525b50505050508093505050505b919050565b6119cf828260405180602001604052806000815250611c2c565b5050565b6119dc826113c9565b611a1b576040517f08c379a0000000000000000000000000000000000000000000000000000000008152600401611a1290612d7d565b60405180910390fd5b80600660008481526020019081526020016000209080519060200190611a42929190612160565b505050565b6000600760009054906101000a900473ffffffffffffffffffffffffffffffffffffffff16905081600760006101000a81548173ffffffffffffffffffffffffffffffffffffffff021916908373ffffffffffffffffffffffffffffffffffffffff1602179055508173ffffffffffffffffffffffffffffffffffffffff168173ffffffffffffffffffffffffffffffffffffffff167f8be0079c531659141344cd1fd0a4f28419497f9722a3daafe3b4186f6b6457e060405160405180910390a35050565b611b188484846115d4565b611b2484848484611c87565b611b63576040517f08c379a0000000000000000000000000000000000000000000000000000000008152600401611b5a90612c5d565b60405180910390fd5b50505050565b606060405180602001604052806000815250905090565b6060611b8b826113c9565b611bca576040517f08c379a0000000000000000000000000000000000000000000000000000000008152600401611bc190612e3d565b60405180910390fd5b6000611bd4611b69565b90506000815111611bf45760405180602001604052806000815250611c1f565b80611bfe84611e1e565b604051602001611c0f929190612ae9565b6040516020818303038152906040525b915050919050565b505050565b611c368383611f7f565b611c436000848484611c87565b611c82576040517f08c379a0000000000000000000000000000000000000000000000000000000008152600401611c7990612c5d565b60405180910390fd5b505050565b6000611ca88473ffffffffffffffffffffffffffffffffffffffff1661214d565b15611e11578373ffffffffffffffffffffffffffffffffffffffff1663150b7a02611cd1611435565b8786866040518563ffffffff1660e01b8152600401611cf39493929190612b8f565b602060405180830381600087803b158015611d0d57600080fd5b505af1925050508015611d3e57506040513d601f19601f82011682018060405250810190611d3b919061253c565b60015b611dc1573d8060008114611d6e576040519150601f19603f3d011682016040523d82523d6000602084013e611d73565b606091505b50600081511415611db9576040517f08c379a0000000000000000000000000000000000000000000000000000000008152600401611db090612c5d565b60405180910390fd5b805181602001fd5b63150b7a0260e01b7bffffffffffffffffffffffffffffffffffffffffffffffffffffffff1916817bffffffffffffffffffffffffffffffffffffffffffffffffffffffff191614915050611e16565b600190505b949350505050565b60606000821415611e66576040518060400160405280600181526020017f30000000000000000000000000000000000000000000000000000000000000008152509050611f7a565b600082905060005b60008214611e98578080611e81906131b0565b915050600a82611e919190612fd8565b9150611e6e565b60008167ffffffffffffffff811115611eb457611eb36132e6565b5b6040519080825280601f01601f191660200182016040528015611ee65781602001600182028036833780820191505090505b5090505b60008514611f7357600182611eff9190613063565b9150600a85611f0e91906131f9565b6030611f1a9190612f82565b60f81b818381518110611f3057611f2f6132b7565b5b60200101907effffffffffffffffffffffffffffffffffffffffffffffffffffffffffffff1916908160001a905350600a85611f6c9190612fd8565b9450611eea565b8093505050505b919050565b600073ffffffffffffffffffffffffffffffffffffffff168273ffffffffffffffffffffffffffffffffffffffff161415611fef576040517f08c379a0000000000000000000000000000000000000000000000000000000008152600401611fe690612d9d565b60405180910390fd5b611ff8816113c9565b15612038576040517f08c379a000000000000000000000000000000000000000000000000000000000815260040161202f90612c9d565b60405180910390fd5b61204460008383611c27565b6001600360008473ffffffffffffffffffffffffffffffffffffffff1673ffffffffffffffffffffffffffffffffffffffff16815260200190815260200160002060008282546120949190612f82565b92505081905550816002600083815260200190815260200160002060006101000a81548173ffffffffffffffffffffffffffffffffffffffff021916908373ffffffffffffffffffffffffffffffffffffffff160217905550808273ffffffffffffffffffffffffffffffffffffffff16600073ffffffffffffffffffffffffffffffffffffffff167fddf252ad1be2c89b69c2b068fc378daa952ba7f163c4a11628f55a4df523b3ef60405160405180910390a45050565b600080823b905060008111915050919050565b82805461216c9061314d565b90600052602060002090601f01602090048101928261218e57600085556121d5565b82601f106121a757805160ff19168380011785556121d5565b828001600101855582156121d5579182015b828111156121d45782518255916020019190600101906121b9565b5b5090506121e291906121e6565b5090565b5b808211156121ff5760008160009055506001016121e7565b5090565b600061221661221184612edd565b612eb8565b9050828152602081018484840111156122325761223161331a565b5b61223d84828561310b565b509392505050565b600061225861225384612f0e565b612eb8565b9050828152602081018484840111156122745761227361331a565b5b61227f84828561310b565b509392505050565b60008135905061229681613a53565b92915050565b6000813590506122ab81613a6a565b92915050565b6000813590506122c081613a81565b92915050565b6000815190506122d581613a81565b92915050565b600082601f8301126122f0576122ef613315565b5b8135612300848260208601612203565b91505092915050565b600082601f83011261231e5761231d613315565b5b813561232e848260208601612245565b91505092915050565b60008135905061234681613a98565b92915050565b60006020828403121561236257612361613324565b5b600061237084828501612287565b91505092915050565b600080604083850312156123905761238f613324565b5b600061239e85828601612287565b92505060206123af85828601612287565b9150509250929050565b6000806000606084860312156123d2576123d1613324565b5b60006123e086828701612287565b93505060206123f186828701612287565b925050604061240286828701612337565b9150509250925092565b6000806000806080858703121561242657612425613324565b5b600061243487828801612287565b945050602061244587828801612287565b935050604061245687828801612337565b925050606085013567ffffffffffffffff8111156124775761247661331f565b5b612483878288016122db565b91505092959194509250565b600080604083850312156124a6576124a5613324565b5b60006124b485828601612287565b92505060206124c58582860161229c565b9150509250929050565b600080604083850312156124e6576124e5613324565b5b60006124f485828601612287565b925050602061250585828601612337565b9150509250929050565b60006020828403121561252557612524613324565b5b6000612533848285016122b1565b91505092915050565b60006020828403121561255257612551613324565b5b6000612560848285016122c6565b91505092915050565b60006020828403121561257f5761257e613324565b5b600082013567ffffffffffffffff81111561259d5761259c61331f565b5b6125a984828501612309565b91505092915050565b600080604083850312156125c9576125c8613324565b5b600083013567ffffffffffffffff8111156125e7576125e661331f565b5b6125f385828601612309565b925050602083013567ffffffffffffffff8111156126145761261361331f565b5b61262085828601612309565b9150509250929050565b60008060006060848603121561264357612642613324565b5b600084013567ffffffffffffffff8111156126615761266061331f565b5b61266d86828701612309565b935050602084013567ffffffffffffffff81111561268e5761268d61331f565b5b61269a86828701612309565b925050604084013567ffffffffffffffff8111156126bb576126ba61331f565b5b6126c786828701612309565b9150509250925092565b6000602082840312156126e7576126e6613324565b5b60006126f584828501612337565b91505092915050565b61270781613097565b82525050565b612716816130a9565b82525050565b600061272782612f3f565b6127318185612f55565b935061274181856020860161311a565b61274a81613329565b840191505092915050565b600061276082612f4a565b61276a8185612f66565b935061277a81856020860161311a565b61278381613329565b840191505092915050565b600061279982612f4a565b6127a38185612f77565b93506127b381856020860161311a565b80840191505092915050565b60006127cc600983612f77565b91506127d78261333a565b600982019050919050565b60006127ef603283612f66565b91506127fa82613363565b604082019050919050565b6000612812602683612f66565b915061281d826133b2565b604082019050919050565b6000612835601c83612f66565b915061284082613401565b602082019050919050565b6000612858602483612f66565b91506128638261342a565b604082019050919050565b600061287b601983612f66565b915061288682613479565b602082019050919050565b600061289e602c83612f66565b91506128a9826134a2565b604082019050919050565b60006128c261014983612f77565b91506128cd826134f1565b61014982019050919050565b60006128e6603883612f66565b91506128f182613699565b604082019050919050565b6000612909602a83612f66565b9150612914826136e8565b604082019050919050565b600061292c602983612f66565b915061293782613737565b604082019050919050565b600061294f602e83612f66565b915061295a82613786565b604082019050919050565b6000612972600283612f77565b915061297d826137d5565b600282019050919050565b6000612995602083612f66565b91506129a0826137fe565b602082019050919050565b60006129b8603183612f66565b91506129c382613827565b604082019050919050565b60006129db602c83612f66565b91506129e682613876565b604082019050919050565b60006129fe602083612f66565b9150612a09826138c5565b602082019050919050565b6000612a21602983612f66565b9150612a2c826138ee565b604082019050919050565b6000612a44602f83612f66565b9150612a4f8261393d565b604082019050919050565b6000612a67602183612f66565b9150612a728261398c565b604082019050919050565b6000612a8a601d83612f77565b9150612a95826139db565b601d82019050919050565b6000612aad603183612f66565b9150612ab882613a04565b604082019050919050565b612acc81613101565b82525050565b6000612ade828461278e565b915081905092915050565b6000612af5828561278e565b9150612b01828461278e565b91508190509392505050565b6000612b18826127bf565b9150612b24828561278e565b9150612b2f826128b4565b9150612b3b828461278e565b9150612b4682612965565b91508190509392505050565b6000612b5d82612a7d565b9150612b69828461278e565b915081905092915050565b6000602082019050612b8960008301846126fe565b92915050565b6000608082019050612ba460008301876126fe565b612bb160208301866126fe565b612bbe6040830185612ac3565b8181036060830152612bd0818461271c565b905095945050505050565b6000602082019050612bf0600083018461270d565b92915050565b60006020820190508181036000830152612c108184612755565b905092915050565b60006060820190508181036000830152612c328186612755565b9050612c4160208301856126fe565b8181036040830152612c538184612755565b9050949350505050565b60006020820190508181036000830152612c76816127e2565b9050919050565b60006020820190508181036000830152612c9681612805565b9050919050565b60006020820190508181036000830152612cb681612828565b9050919050565b60006020820190508181036000830152612cd68161284b565b9050919050565b60006020820190508181036000830152612cf68161286e565b9050919050565b60006020820190508181036000830152612d1681612891565b9050919050565b60006020820190508181036000830152612d36816128d9565b9050919050565b60006020820190508181036000830152612d56816128fc565b9050919050565b60006020820190508181036000830152612d768161291f565b9050919050565b60006020820190508181036000830152612d9681612942565b9050919050565b60006020820190508181036000830152612db681612988565b9050919050565b60006020820190508181036000830152612dd6816129ab565b9050919050565b60006020820190508181036000830152612df6816129ce565b9050919050565b60006020820190508181036000830152612e16816129f1565b9050919050565b60006020820190508181036000830152612e3681612a14565b9050919050565b60006020820190508181036000830152612e5681612a37565b9050919050565b60006020820190508181036000830152612e7681612a5a565b9050919050565b60006020820190508181036000830152612e9681612aa0565b9050919050565b6000602082019050612eb26000830184612ac3565b92915050565b6000612ec2612ed3565b9050612ece828261317f565b919050565b6000604051905090565b600067ffffffffffffffff821115612ef857612ef76132e6565b5b612f0182613329565b9050602081019050919050565b600067ffffffffffffffff821115612f2957612f286132e6565b5b612f3282613329565b9050602081019050919050565b600081519050919050565b600081519050919050565b600082825260208201905092915050565b600082825260208201905092915050565b600081905092915050565b6000612f8d82613101565b9150612f9883613101565b9250827fffffffffffffffffffffffffffffffffffffffffffffffffffffffffffffffff03821115612fcd57612fcc61322a565b5b828201905092915050565b6000612fe382613101565b9150612fee83613101565b925082612ffe57612ffd613259565b5b828204905092915050565b600061301482613101565b915061301f83613101565b9250817fffffffffffffffffffffffffffffffffffffffffffffffffffffffffffffffff04831182151516156130585761305761322a565b5b828202905092915050565b600061306e82613101565b915061307983613101565b92508282101561308c5761308b61322a565b5b828203905092915050565b60006130a2826130e1565b9050919050565b60008115159050919050565b60007fffffffff0000000000000000000000000000000000000000000000000000000082169050919050565b600073ffffffffffffffffffffffffffffffffffffffff82169050919050565b6000819050919050565b82818337600083830152505050565b60005b8381101561313857808201518184015260208101905061311d565b83811115613147576000848401525b50505050565b6000600282049050600182168061316557607f821691505b6020821081141561317957613178613288565b5b50919050565b61318882613329565b810181811067ffffffffffffffff821117156131a7576131a66132e6565b5b80604052505050565b60006131bb82613101565b91507fffffffffffffffffffffffffffffffffffffffffffffffffffffffffffffffff8214156131ee576131ed61322a565b5b600182019050919050565b600061320482613101565b915061320f83613101565b92508261321f5761321e613259565b5b828206905092915050565b7f4e487b7100000000000000000000000000000000000000000000000000000000600052601160045260246000fd5b7f4e487b7100000000000000000000000000000000000000000000000000000000600052601260045260246000fd5b7f4e487b7100000000000000000000000000000000000000000000000000000000600052602260045260246000fd5b7f4e487b7100000000000000000000000000000000000000000000000000000000600052603260045260246000fd5b7f4e487b7100000000000000000000000000000000000000000000000000000000600052604160045260246000fd5b600080fd5b600080fd5b600080fd5b600080fd5b6000601f19601f8301169050919050565b7f7b226e616d65223a220000000000000000000000000000000000000000000000600082015250565b7f4552433732313a207472616e7366657220746f206e6f6e20455243373231526560008201527f63656976657220696d706c656d656e7465720000000000000000000000000000602082015250565b7f4f776e61626c653a206e6577206f776e657220697320746865207a65726f206160008201527f6464726573730000000000000000000000000000000000000000000000000000602082015250565b7f4552433732313a20746f6b656e20616c7265616479206d696e74656400000000600082015250565b7f4552433732313a207472616e7366657220746f20746865207a65726f2061646460008201527f7265737300000000000000000000000000000000000000000000000000000000602082015250565b7f4552433732313a20617070726f766520746f2063616c6c657200000000000000600082015250565b7f4552433732313a206f70657261746f7220717565727920666f72206e6f6e657860008201527f697374656e7420746f6b656e0000000000000000000000000000000000000000602082015250565b7f222c20226465736372697074696f6e223a22436f6c6f7220436f64652069732060008201527f6120636f6c6c656374696f6e206f662031362c3737372c32313620756e69717560208201527f6520312f31204e4654732074686174206c697665206f6e20746865204574686560408201527f7265756d20426c6f636b636861696e2e205468657920726570726573656e742060608201527f7374616e646172642068657820636f6c6f7220636f646520235252474742422060808201527f6e6f746174696f6e2c20746865726520617265203235365e3320636f6c6f722060a08201527f636f6d62696e6174696f6e7320617661696c61626c652e204561636820636f6c60c08201527f6f722076616c75652052522c2047472c2042422063616e20636f6e7461696e2060e08201527f32353620646966666572656e742076616c7565732c2072616e67696e672066726101008201527f6f6d20303020746f2046462e222c202261747472696275746573223a22222c206101208201527f22696d616765223a22000000000000000000000000000000000000000000000061014082015250565b7f4552433732313a20617070726f76652063616c6c6572206973206e6f74206f7760008201527f6e6572206e6f7220617070726f76656420666f7220616c6c0000000000000000602082015250565b7f4552433732313a2062616c616e636520717565727920666f7220746865207a6560008201527f726f206164647265737300000000000000000000000000000000000000000000602082015250565b7f4552433732313a206f776e657220717565727920666f72206e6f6e657869737460008201527f656e7420746f6b656e0000000000000000000000000000000000000000000000602082015250565b7f45524337323155524953746f726167653a2055524920736574206f66206e6f6e60008201527f6578697374656e7420746f6b656e000000000000000000000000000000000000602082015250565b7f227d000000000000000000000000000000000000000000000000000000000000600082015250565b7f4552433732313a206d696e7420746f20746865207a65726f2061646472657373600082015250565b7f45524337323155524953746f726167653a2055524920717565727920666f722060008201527f6e6f6e6578697374656e7420746f6b656e000000000000000000000000000000602082015250565b7f4552433732313a20617070726f76656420717565727920666f72206e6f6e657860008201527f697374656e7420746f6b656e0000000000000000000000000000000000000000602082015250565b7f4f776e61626c653a2063616c6c6572206973206e6f7420746865206f776e6572600082015250565b7f4552433732313a207472616e73666572206f6620746f6b656e2074686174206960008201527f73206e6f74206f776e0000000000000000000000000000000000000000000000602082015250565b7f4552433732314d657461646174613a2055524920717565727920666f72206e6f60008201527f6e6578697374656e7420746f6b656e0000000000000000000000000000000000602082015250565b7f4552433732313a20617070726f76616c20746f2063757272656e74206f776e6560008201527f7200000000000000000000000000000000000000000000000000000000000000602082015250565b7f646174613a6170706c69636174696f6e2f6a736f6e3b6261736536342c000000600082015250565b7f4552433732313a207472616e736665722063616c6c6572206973206e6f74206f60008201527f776e6572206e6f7220617070726f766564000000000000000000000000000000602082015250565b613a5c81613097565b8114613a6757600080fd5b50565b613a73816130a9565b8114613a7e57600080fd5b50565b613a8a816130b5565b8114613a9557600080fd5b50565b613aa181613101565b8114613aac57600080fd5b5056fe4142434445464748494a4b4c4d4e4f505152535455565758595a6162636465666768696a6b6c6d6e6f707172737475767778797a303132333435363738392b2fa2646970667358221220350e34f3fb04bcc980553c1d407ff4f0d10896f0a18a30a5595eb6a5988baf0264736f6c63430008070033",
  "immutableReferences": {},
  "source": "// SPDX-License-Identifier: UNLICENSED\npragma solidity ^0.8.0;\n\nimport \"@openzeppelin/contracts/token/ERC721/ERC721.sol\";\nimport \"@openzeppelin/contracts/access/Ownable.sol\";\nimport \"@openzeppelin/contracts/token/ERC721/extensions/ERC721URIStorage.sol\";\nimport \"base64-sol/base64.sol\";\n\n\ncontract Color is ERC721URIStorage, Ownable {\n\n  struct ColorData {\n    string color;\n    address owner;\n    string dateCreated;\n  }\n\n  uint256 public tokenCounter;\n  event CreatedSVGNFT(uint256 indexed tokenId, string tokenURI);\n\n\n  ColorData[] public colors;\n  mapping(string => bool) _colorExists;\n\n  constructor() ERC721(\"Color Code\", \"CLR\")\n  {\n      tokenCounter = 0;\n  }\n\n  function create(string memory svg, string memory _color, string memory _date) public {\n      require(!_colorExists[_color]);\n      ColorData memory newColor = ColorData(_color, msg.sender, _date);\n      colors.push(newColor);\n      _safeMint(msg.sender, tokenCounter);\n      _colorExists[_color] = true;\n      string memory imageURI = svgToImageURI(svg);\n      _setTokenURI(tokenCounter, formatTokenURI(imageURI, _color));\n      tokenCounter = tokenCounter + 1;\n      emit CreatedSVGNFT(tokenCounter, svg);\n  }\n  // You could also just upload the raw SVG and have solildity convert it!\n  function svgToImageURI(string memory svg) public pure returns (string memory) {\n      // example:\n      // <svg width='500' height='500' viewBox='0 0 285 350' fill='none' xmlns='http://www.w3.org/2000/svg'><path fill='black' d='M150,0,L75,200,L225,200,Z'></path></svg>\n      // data:image/svg+xml;base64,PHN2ZyB3aWR0aD0nNTAwJyBoZWlnaHQ9JzUwMCcgdmlld0JveD0nMCAwIDI4NSAzNTAnIGZpbGw9J25vbmUnIHhtbG5zPSdodHRwOi8vd3d3LnczLm9yZy8yMDAwL3N2Zyc+PHBhdGggZmlsbD0nYmxhY2snIGQ9J00xNTAsMCxMNzUsMjAwLEwyMjUsMjAwLFonPjwvcGF0aD48L3N2Zz4=\n      string memory baseURL = \"data:image/svg+xml;base64,\";\n      string memory svgBase64Encoded = Base64.encode(bytes(string(abi.encodePacked(svg))));\n      return string(abi.encodePacked(baseURL,svgBase64Encoded));\n  }\n\n  function formatTokenURI(string memory imageURI, string memory _color) public pure returns (string memory) {\n      return string(\n              abi.encodePacked(\n                  \"data:application/json;base64,\",\n                  Base64.encode(\n                      bytes(\n                          abi.encodePacked(\n                              '{\"name\":\"',\n                              _color, // You can add whatever name here\n                              '\", \"description\":\"Color Code is a collection of 16,777,216 unique 1/1 NFTs that live on the Ethereum Blockchain. They represent standard hex color code #RRGGBB notation, there are 256^3 color combinations available. Each color value RR, GG, BB can contain 256 different values, ranging from 00 to FF.\", \"attributes\":\"\", \"image\":\"',imageURI,'\"}'\n                          )\n                      )\n                  )\n              )\n          );\n  }\n}\n",
  "sourcePath": "/Users/israeladelaja/Desktop/colortokens/src/contracts/Color.sol",
  "compiler": {
    "name": "solc",
    "version": "0.8.7+commit.e28d00a7.Emscripten.clang"
  },
  "schemaVersion": "3.4.2",
  "updatedAt": "2021-09-12T01:08:17.522Z",
  "networkType": "ethereum",
  "devdoc": {
    "kind": "dev",
    "methods": {
      "approve(address,uint256)": {
        "details": "See {IERC721-approve}."
      },
      "balanceOf(address)": {
        "details": "See {IERC721-balanceOf}."
      },
      "getApproved(uint256)": {
        "details": "See {IERC721-getApproved}."
      },
      "isApprovedForAll(address,address)": {
        "details": "See {IERC721-isApprovedForAll}."
      },
      "name()": {
        "details": "See {IERC721Metadata-name}."
      },
      "owner()": {
        "details": "Returns the address of the current owner."
      },
      "ownerOf(uint256)": {
        "details": "See {IERC721-ownerOf}."
      },
      "renounceOwnership()": {
        "details": "Leaves the contract without owner. It will not be possible to call `onlyOwner` functions anymore. Can only be called by the current owner. NOTE: Renouncing ownership will leave the contract without an owner, thereby removing any functionality that is only available to the owner."
      },
      "safeTransferFrom(address,address,uint256)": {
        "details": "See {IERC721-safeTransferFrom}."
      },
      "safeTransferFrom(address,address,uint256,bytes)": {
        "details": "See {IERC721-safeTransferFrom}."
      },
      "setApprovalForAll(address,bool)": {
        "details": "See {IERC721-setApprovalForAll}."
      },
      "supportsInterface(bytes4)": {
        "details": "See {IERC165-supportsInterface}."
      },
      "symbol()": {
        "details": "See {IERC721Metadata-symbol}."
      },
      "tokenURI(uint256)": {
        "details": "See {IERC721Metadata-tokenURI}."
      },
      "transferFrom(address,address,uint256)": {
        "details": "See {IERC721-transferFrom}."
      },
      "transferOwnership(address)": {
        "details": "Transfers ownership of the contract to a new account (`newOwner`). Can only be called by the current owner."
      }
    },
    "version": 1
  },
  "userdoc": {
    "kind": "user",
    "methods": {},
    "version": 1
  }
}